{
  "transactions": [
    {
      "hash": "0x79e15db2347361568fa55edce212a6f9a8dc8073962c65e8b8c7d1c3beafde4a",
      "transactionType": "CALL",
      "contractName": null,
      "contractAddress": "0x11A1ae94FE2bCcDF18c28e5fa8F597f1ACf66b6D",
      "function": "mint(address,uint256)",
      "arguments": [
        "0xfD7E4db3aA993E5CCCA761BD690fB17D3A660539",
        "200000000000000000000"
      ],
      "transaction": {
        "type": "0x02",
        "from": "0xfd7e4db3aa993e5ccca761bd690fb17d3a660539",
        "to": "0x11a1ae94fe2bccdf18c28e5fa8f597f1acf66b6d",
        "gas": "0xbbe9",
        "value": "0x0",
        "data": "0x40c10f19000000000000000000000000fd7e4db3aa993e5ccca761bd690fb17d3a66053900000000000000000000000000000000000000000000000ad78ebc5ac6200000",
        "nonce": "0x2a",
        "accessList": []
      },
      "additionalContracts": [],
      "isFixedGasLimit": false
    }
  ],
  "receipts": [
    {
      "transactionHash": "0x79e15db2347361568fa55edce212a6f9a8dc8073962c65e8b8c7d1c3beafde4a",
      "transactionIndex": "0x35",
      "blockHash": "0xb75b7fd07f05d249814c1e8179ea32980ee25d6b2cec02e21c9461541a712520",
      "blockNumber": "0x951e3e4",
      "from": "0xfD7E4db3aA993E5CCCA761BD690fB17D3A660539",
      "to": "0x11A1ae94FE2bCcDF18c28e5fa8F597f1ACf66b6D",
      "cumulativeGasUsed": "0x387404",
      "gasUsed": "0x8f21",
      "contractAddress": null,
      "logs": [
        {
          "address": "0x11A1ae94FE2bCcDF18c28e5fa8F597f1ACf66b6D",
          "topics": [
            "0xddf252ad1be2c89b69c2b068fc378daa952ba7f163c4a11628f55a4df523b3ef",
            "0x0000000000000000000000000000000000000000000000000000000000000000",
            "0x000000000000000000000000fd7e4db3aa993e5ccca761bd690fb17d3a660539"
          ],
          "data": "0x00000000000000000000000000000000000000000000000ad78ebc5ac6200000",
          "blockHash": "0xb75b7fd07f05d249814c1e8179ea32980ee25d6b2cec02e21c9461541a712520",
          "blockNumber": "0x951e3e4",
          "transactionHash": "0x79e15db2347361568fa55edce212a6f9a8dc8073962c65e8b8c7d1c3beafde4a",
          "transactionIndex": "0x35",
          "logIndex": "0x5",
          "removed": false
        }
      ],
      "status": "0x1",
      "logsBloom": "0x00000000000000000000000000000000000080000000000000000000000000000000000000000000000000000000000000000000000000000000000000000000000000000000000000000008000000000000000000000000000000000000000000000000020000000000000000000800000080000000000000200010000000000000000000000000000000000000000000000000000000000000000100000000000000000000000000000000000000000000000000000000000000000000000000000002000000000000000000000000000000040000000000000000000020000020000000000000000000000000000000000000000000000000000000000000",
      "type": "0x2",
      "effectiveGasPrice": "0x5f5e100"
    }
  ],
  "libraries": [],
  "pending": [],
  "returns": {},
  "timestamp": 1748107288,
  "chain": 421614,
  "multi": false,
  "commit": "c013010"
}