{
  "transactions": [
    {
      "hash": "0xe1178329fa2c491aa5434c81aa9bd1e17912f937591e25979cb42751dc5ce0b8",
      "transactionType": "CALL",
      "contractName": null,
      "contractAddress": "0x11A1ae94FE2bCcDF18c28e5fa8F597f1ACf66b6D",
      "function": "approve(address,uint256)",
      "arguments": [
        "0xB0D86C0474DaC74e14573C2DE34FCbD5aA084b8f",
        "100000000000000000000"
      ],
      "transaction": {
        "type": "0x02",
        "from": "0xfd7e4db3aa993e5ccca761bd690fb17d3a660539",
        "to": "0x11a1ae94fe2bccdf18c28e5fa8f597f1acf66b6d",
        "gas": "0xeda2",
        "value": "0x0",
        "data": "0x095ea7b3000000000000000000000000b0d86c0474dac74e14573c2de34fcbd5aa084b8f0000000000000000000000000000000000000000000000056bc75e2d63100000",
        "nonce": "0x5",
        "accessList": []
      },
      "additionalContracts": [],
      "isFixedGasLimit": false
    },
    {
      "hash": "0xcc2051135f4268c0219afee2a52145fdaa06fb1123feb1fe7bd41eceb714c68c",
      "transactionType": "CALL",
      "contractName": null,
      "contractAddress": "0xB0D86C0474DaC74e14573C2DE34FCbD5aA084b8f",
      "function": "createJob(string,uint256,uint256)",
      "arguments": [
        "\"QmbWqxBEKC3P8tqsKc98xmWNzrzDtRLMiMPL8wBuTGsMnR\"",
        "100000000000000000000",
        "1747456740"
      ],
      "transaction": {
        "type": "0x02",
        "from": "0xfd7e4db3aa993e5ccca761bd690fb17d3a660539",
        "to": "0xb0d86c0474dac74e14573c2de34fcbd5aa084b8f",
        "gas": "0x552e4",
        "value": "0x0",
        "data": "0x79c6271100000000000000000000000000000000000000000000000000000000000000600000000000000000000000000000000000000000000000056bc75e2d6310000000000000000000000000000000000000000000000000000000000000682812e4000000000000000000000000000000000000000000000000000000000000002e516d6257717842454b433350387471734b633938786d574e7a727a4474524c4d694d504c387742755447734d6e52000000000000000000000000000000000000",
        "nonce": "0x6",
        "accessList": []
      },
      "additionalContracts": [],
      "isFixedGasLimit": false
    }
  ],
  "receipts": [
    {
      "transactionHash": "0xe1178329fa2c491aa5434c81aa9bd1e17912f937591e25979cb42751dc5ce0b8",
      "transactionIndex": "0xc",
      "blockHash": "0xab5cc9a4fd2a137ab1e44521d03a736d55e577adae6c0d6d9d651351c69ecc75",
      "blockNumber": "0x92a1bcb",
      "from": "0xfD7E4db3aA993E5CCCA761BD690fB17D3A660539",
      "to": "0x11A1ae94FE2bCcDF18c28e5fa8F597f1ACf66b6D",
      "cumulativeGasUsed": "0xa99f1",
      "gasUsed": "0xb54d",
      "contractAddress": null,
      "logs": [
        {
          "address": "0x11A1ae94FE2bCcDF18c28e5fa8F597f1ACf66b6D",
          "topics": [
            "0x8c5be1e5ebec7d5bd14f71427d1e84f3dd0314c0f7b2291e5b200ac8c7c3b925",
            "0x000000000000000000000000fd7e4db3aa993e5ccca761bd690fb17d3a660539",
            "0x000000000000000000000000b0d86c0474dac74e14573c2de34fcbd5aa084b8f"
          ],
          "data": "0x0000000000000000000000000000000000000000000000056bc75e2d63100000",
          "blockHash": "0xab5cc9a4fd2a137ab1e44521d03a736d55e577adae6c0d6d9d651351c69ecc75",
          "blockNumber": "0x92a1bcb",
          "transactionHash": "0xe1178329fa2c491aa5434c81aa9bd1e17912f937591e25979cb42751dc5ce0b8",
          "transactionIndex": "0xc",
          "logIndex": "0x7",
          "removed": false
        }
      ],
      "status": "0x1",
      "logsBloom": "0x00000000000000000000000000000000000480000000000000000000000000000000000000000000000000002000000000000000000000000000000000200000000000000400000000000000000000000000000000000000000000000000000000000000000000000000000000000000000080000000000000200000000000000000000000000000000000000000000000000000000000000000000100000000020000000000000000000000000000000000000000000000000000000000000000000000000000000000000000000000000000040000000000000000000000000030000000000000000000000000000000000000000000000000000000000000",
      "type": "0x2",
      "effectiveGasPrice": "0x488e8620"
    },
    {
      "transactionHash": "0xcc2051135f4268c0219afee2a52145fdaa06fb1123feb1fe7bd41eceb714c68c",
      "transactionIndex": "0x23",
      "blockHash": "0xde2cbd13d8d0cd64c031cd44d02af29b825524d1d4fb2785b22a0bd45e6180ab",
      "blockNumber": "0x92a1bd3",
      "from": "0xfD7E4db3aA993E5CCCA761BD690fB17D3A660539",
      "to": "0xB0D86C0474DaC74e14573C2DE34FCbD5aA084b8f",
      "cumulativeGasUsed": "0x1ef308",
      "gasUsed": "0x3dab6",
      "contractAddress": null,
      "logs": [
        {
          "address": "0x11A1ae94FE2bCcDF18c28e5fa8F597f1ACf66b6D",
          "topics": [
            "0xddf252ad1be2c89b69c2b068fc378daa952ba7f163c4a11628f55a4df523b3ef",
            "0x000000000000000000000000fd7e4db3aa993e5ccca761bd690fb17d3a660539",
            "0x000000000000000000000000b0d86c0474dac74e14573c2de34fcbd5aa084b8f"
          ],
          "data": "0x0000000000000000000000000000000000000000000000056bc75e2d63100000",
          "blockHash": "0xde2cbd13d8d0cd64c031cd44d02af29b825524d1d4fb2785b22a0bd45e6180ab",
          "blockNumber": "0x92a1bd3",
          "transactionHash": "0xcc2051135f4268c0219afee2a52145fdaa06fb1123feb1fe7bd41eceb714c68c",
          "transactionIndex": "0x23",
          "logIndex": "0xc",
          "removed": false
        },
        {
          "address": "0xB0D86C0474DaC74e14573C2DE34FCbD5aA084b8f",
          "topics": [
            "0x6d8ea6350d0df57435b30450a9ac81ab4a8bca79d94320869b5825a35ce0cff6",
            "0x0000000000000000000000000000000000000000000000000000000000000000",
            "0x000000000000000000000000fd7e4db3aa993e5ccca761bd690fb17d3a660539"
          ],
          "data": "0x00000000000000000000000000000000000000000000000000000000000000600000000000000000000000000000000000000000000000056bc75e2d6310000000000000000000000000000000000000000000000000000000000000682812e4000000000000000000000000000000000000000000000000000000000000002e516d6257717842454b433350387471734b633938786d574e7a727a4474524c4d694d504c387742755447734d6e52000000000000000000000000000000000000",
          "blockHash": "0xde2cbd13d8d0cd64c031cd44d02af29b825524d1d4fb2785b22a0bd45e6180ab",
          "blockNumber": "0x92a1bd3",
          "transactionHash": "0xcc2051135f4268c0219afee2a52145fdaa06fb1123feb1fe7bd41eceb714c68c",
          "transactionIndex": "0x23",
          "logIndex": "0xd",
          "removed": false
        }
      ],
      "status": "0x1",
      "logsBloom": "0x00000000000000000000000000000000000480000000040000000000000000000000000000000000000000002000000000000000000000000000000000000000000000000400000000001008000000000000000000000000000000000000000000000000020000000000000000000800000080000000000000200050000000000000000000000000000000000000000000000000000000000000000100000000000000004000000000000000000000000000000000000000000000000000000000000002000000000000000200000000000000040000000000000000000020000020000000000000000000000000000000000000000000000000000000400000",
      "type": "0x2",
      "effectiveGasPrice": "0x487f9200"
    }
  ],
  "libraries": [],
  "pending": [],
  "returns": {},
  "timestamp": 1747453168,
  "chain": 421614,
  "multi": false,
  "commit": "2137464"
}